{
  "contractName": "sealedAuction",
  "abi": [
    {
      "constant": true,
      "inputs": [
        {
          "name": "",
          "type": "address"
        }
      ],
      "name": "sealedBids",
      "outputs": [
        {
          "name": "",
          "type": "bytes32"
        }
      ],
      "payable": false,
      "stateMutability": "view",
      "type": "function"
    },
    {
      "constant": true,
      "inputs": [],
      "name": "maxRevealedBid",
      "outputs": [
        {
          "name": "",
          "type": "uint256"
        }
      ],
      "payable": false,
      "stateMutability": "view",
      "type": "function"
    },
    {
      "constant": true,
      "inputs": [],
      "name": "started",
      "outputs": [
        {
          "name": "",
          "type": "bool"
        }
      ],
      "payable": false,
      "stateMutability": "view",
      "type": "function"
    },
    {
      "constant": true,
      "inputs": [],
      "name": "escrowAmount",
      "outputs": [
        {
          "name": "",
          "type": "uint256"
        }
      ],
      "payable": false,
      "stateMutability": "view",
      "type": "function"
    },
    {
      "constant": true,
      "inputs": [],
      "name": "startBlock",
      "outputs": [
        {
          "name": "",
          "type": "uint256"
        }
      ],
      "payable": false,
      "stateMutability": "view",
      "type": "function"
    },
    {
      "constant": true,
      "inputs": [],
      "name": "owner",
      "outputs": [
        {
          "name": "",
          "type": "address"
        }
      ],
      "payable": false,
      "stateMutability": "view",
      "type": "function"
    },
    {
      "constant": true,
      "inputs": [
        {
          "name": "",
          "type": "address"
        }
      ],
      "name": "escrowedFunds",
      "outputs": [
        {
          "name": "",
          "type": "uint256"
        }
      ],
      "payable": false,
      "stateMutability": "view",
      "type": "function"
    },
    {
      "constant": true,
      "inputs": [],
      "name": "winnerSettled",
      "outputs": [
        {
          "name": "",
          "type": "bool"
        }
      ],
      "payable": false,
      "stateMutability": "view",
      "type": "function"
    },
    {
      "constant": true,
      "inputs": [],
      "name": "ipfsHash",
      "outputs": [
        {
          "name": "",
          "type": "uint256"
        }
      ],
      "payable": false,
      "stateMutability": "view",
      "type": "function"
    },
    {
      "constant": true,
      "inputs": [],
      "name": "claimingDuration",
      "outputs": [
        {
          "name": "",
          "type": "uint256"
        }
      ],
      "payable": false,
      "stateMutability": "view",
      "type": "function"
    },
    {
      "constant": true,
      "inputs": [],
      "name": "biddingDuration",
      "outputs": [
        {
          "name": "",
          "type": "uint256"
        }
      ],
      "payable": false,
      "stateMutability": "view",
      "type": "function"
    },
    {
      "constant": true,
      "inputs": [
        {
          "name": "",
          "type": "address"
        }
      ],
      "name": "revealedBids",
      "outputs": [
        {
          "name": "",
          "type": "uint256"
        }
      ],
      "payable": false,
      "stateMutability": "view",
      "type": "function"
    },
    {
      "constant": true,
      "inputs": [],
      "name": "winner",
      "outputs": [
        {
          "name": "",
          "type": "address"
        }
      ],
      "payable": false,
      "stateMutability": "view",
      "type": "function"
    },
    {
      "constant": true,
      "inputs": [],
      "name": "revealingDuration",
      "outputs": [
        {
          "name": "",
          "type": "uint256"
        }
      ],
      "payable": false,
      "stateMutability": "view",
      "type": "function"
    },
    {
      "inputs": [
        {
          "name": "_ipfsHash",
          "type": "uint256"
        },
        {
          "name": "_escrowAmount",
          "type": "uint256"
        },
        {
          "name": "_biddingDuration",
          "type": "uint256"
        },
        {
          "name": "_revealingDuration",
          "type": "uint256"
        },
        {
          "name": "_claimingDuration",
          "type": "uint256"
        }
      ],
      "payable": false,
      "stateMutability": "nonpayable",
      "type": "constructor"
    },
    {
      "constant": false,
      "inputs": [],
      "name": "startAuction",
      "outputs": [],
      "payable": false,
      "stateMutability": "nonpayable",
      "type": "function"
    },
    {
      "constant": false,
      "inputs": [
        {
          "name": "bid",
          "type": "bytes32"
        }
      ],
      "name": "placeBid",
      "outputs": [],
      "payable": true,
      "stateMutability": "payable",
      "type": "function"
    },
    {
      "constant": false,
      "inputs": [
        {
          "name": "bid",
          "type": "uint256"
        },
        {
          "name": "salt",
          "type": "uint256"
        }
      ],
      "name": "revealBid",
      "outputs": [],
      "payable": false,
      "stateMutability": "nonpayable",
      "type": "function"
    },
    {
      "constant": false,
      "inputs": [],
      "name": "settle",
      "outputs": [],
      "payable": true,
      "stateMutability": "payable",
      "type": "function"
    },
    {
      "constant": false,
      "inputs": [],
      "name": "refund",
      "outputs": [],
      "payable": false,
      "stateMutability": "nonpayable",
      "type": "function"
    },
    {
      "constant": false,
      "inputs": [],
      "name": "closeAuction",
      "outputs": [],
      "payable": true,
      "stateMutability": "payable",
      "type": "function"
    }
  ],
  "bytecode": "0x608060405234801561001057600080fd5b5060405160a080610fb0833981018060405260a081101561003057600080fd5b81019080805190602001909291908051906020019092919080519060200190929190805190602001909291908051906020019092919050505060008411151561007857600080fd5b60008311151561008757600080fd5b60008211151561009657600080fd5b6000811115156100a557600080fd5b336000806101000a81548173ffffffffffffffffffffffffffffffffffffffff021916908373ffffffffffffffffffffffffffffffffffffffff16021790555084600281905550836001819055508260038190555081600481905550806005819055506000600660006101000a81548160ff02191690831515021790555060006009819055506000600860146101000a81548160ff0219169083151502179055505050505050610e568061015a6000396000f3fe608060405260043610610112576000357c0100000000000000000000000000000000000000000000000000000000900463ffffffff16806311da60b4146101175780631402ac1514610121578063152569ab146101865780631f2698ab146101b1578063378252f2146101e057806347a7846f146101ea57806348cd4cb114610215578063497ecfc514610240578063590e1ae31461026e5780636b64c769146102855780637a9353701461029c5780638da5cb5b146102e157806391e14d6a14610338578063ae045d251461039d578063c623674f146103cc578063c6561df8146103f7578063c8e7b31d14610422578063d9a80c851461044d578063dfbf53ae146104b2578063e297f68a14610509575b600080fd5b61011f610534565b005b34801561012d57600080fd5b506101706004803603602081101561014457600080fd5b81019080803573ffffffffffffffffffffffffffffffffffffffff16906020019092919050505061077b565b6040518082815260200191505060405180910390f35b34801561019257600080fd5b5061019b610793565b6040518082815260200191505060405180910390f35b3480156101bd57600080fd5b506101c6610799565b604051808215151515815260200191505060405180910390f35b6101e86107ac565b005b3480156101f657600080fd5b506101ff61083d565b6040518082815260200191505060405180910390f35b34801561022157600080fd5b5061022a610843565b6040518082815260200191505060405180910390f35b61026c6004803603602081101561025657600080fd5b8101908080359060200190929190505050610849565b005b34801561027a57600080fd5b5061028361097a565b005b34801561029157600080fd5b5061029a610b83565b005b3480156102a857600080fd5b506102df600480360360408110156102bf57600080fd5b810190808035906020019092919080359060200190929190505050610c1e565b005b3480156102ed57600080fd5b506102f6610d84565b604051808273ffffffffffffffffffffffffffffffffffffffff1673ffffffffffffffffffffffffffffffffffffffff16815260200191505060405180910390f35b34801561034457600080fd5b506103876004803603602081101561035b57600080fd5b81019080803573ffffffffffffffffffffffffffffffffffffffff169060200190929190505050610da9565b6040518082815260200191505060405180910390f35b3480156103a957600080fd5b506103b2610dc1565b604051808215151515815260200191505060405180910390f35b3480156103d857600080fd5b506103e1610dd4565b6040518082815260200191505060405180910390f35b34801561040357600080fd5b5061040c610dda565b6040518082815260200191505060405180910390f35b34801561042e57600080fd5b50610437610de0565b6040518082815260200191505060405180910390f35b34801561045957600080fd5b5061049c6004803603602081101561047057600080fd5b81019080803573ffffffffffffffffffffffffffffffffffffffff169060200190929190505050610de6565b6040518082815260200191505060405180910390f35b3480156104be57600080fd5b506104c7610dfe565b604051808273ffffffffffffffffffffffffffffffffffffffff1673ffffffffffffffffffffffffffffffffffffffff16815260200191505060405180910390f35b34801561051557600080fd5b5061051e610e24565b6040518082815260200191505060405180910390f35b600660009054906101000a900460ff1680156105595750600454600354600754010143115b8015610572575060055460045460035460075401010143105b151561057d57600080fd5b600860009054906101000a900473ffffffffffffffffffffffffffffffffffffffff1673ffffffffffffffffffffffffffffffffffffffff163373ffffffffffffffffffffffffffffffffffffffff161415156105d957600080fd5b600860149054906101000a900460ff161515156105f557600080fd5b600954600b60003373ffffffffffffffffffffffffffffffffffffffff1673ffffffffffffffffffffffffffffffffffffffff1681526020019081526020016000205411156106c2573373ffffffffffffffffffffffffffffffffffffffff166108fc600954600b60003373ffffffffffffffffffffffffffffffffffffffff1673ffffffffffffffffffffffffffffffffffffffff16815260200190815260200160002054039081150290604051600060405180830381858888f1935050505015156106c157600080fd5b5b600954600b60003373ffffffffffffffffffffffffffffffffffffffff1673ffffffffffffffffffffffffffffffffffffffff16815260200190815260200160002054101561075e57600b60003373ffffffffffffffffffffffffffffffffffffffff1673ffffffffffffffffffffffffffffffffffffffff1681526020019081526020016000205460095403341015151561075d57600080fd5b5b6001600860146101000a81548160ff021916908315150217905550565b600a6020528060005260406000206000915090505481565b60095481565b600660009054906101000a900460ff1681565b6000809054906101000a900473ffffffffffffffffffffffffffffffffffffffff1673ffffffffffffffffffffffffffffffffffffffff163373ffffffffffffffffffffffffffffffffffffffff1614151561080757600080fd5b600660009054906101000a900460ff168015610830575060055460045460035460075401010143115b151561083b57600080fd5b565b60015481565b60075481565b6000809054906101000a900473ffffffffffffffffffffffffffffffffffffffff1673ffffffffffffffffffffffffffffffffffffffff163373ffffffffffffffffffffffffffffffffffffffff16141515156108a557600080fd5b600660009054906101000a900460ff1680156108c2575060075443115b80156108d357506003546007540143105b15156108de57600080fd5b60015434101515156108ef57600080fd5b80600a60003373ffffffffffffffffffffffffffffffffffffffff1673ffffffffffffffffffffffffffffffffffffffff1681526020019081526020016000208190555034600b60003373ffffffffffffffffffffffffffffffffffffffff1673ffffffffffffffffffffffffffffffffffffffff1681526020019081526020016000208190555050565b600660009054906101000a900460ff16801561099f5750600454600354600754010143115b80156109b8575060055460045460035460075401010143105b15156109c357600080fd5b600860009054906101000a900473ffffffffffffffffffffffffffffffffffffffff1673ffffffffffffffffffffffffffffffffffffffff163373ffffffffffffffffffffffffffffffffffffffff1614151515610a2057600080fd5b6000600c60003373ffffffffffffffffffffffffffffffffffffffff1673ffffffffffffffffffffffffffffffffffffffff1681526020019081526020016000205414151515610a6f57600080fd5b6000600b60003373ffffffffffffffffffffffffffffffffffffffff1673ffffffffffffffffffffffffffffffffffffffff16815260200190815260200160002054111515610abd57600080fd5b3373ffffffffffffffffffffffffffffffffffffffff166108fc600b60003373ffffffffffffffffffffffffffffffffffffffff1673ffffffffffffffffffffffffffffffffffffffff168152602001908152602001600020549081150290604051600060405180830381858888f193505050501515610b3c57600080fd5b6000600b60003373ffffffffffffffffffffffffffffffffffffffff1673ffffffffffffffffffffffffffffffffffffffff16815260200190815260200160002081905550565b6000809054906101000a900473ffffffffffffffffffffffffffffffffffffffff1673ffffffffffffffffffffffffffffffffffffffff163373ffffffffffffffffffffffffffffffffffffffff16141515610bde57600080fd5b600660009054906101000a900460ff16151515610bfa57600080fd5b436007819055506001600660006101000a81548160ff021916908315150217905550565b600660009054906101000a900460ff168015610c3f57506003546007540143115b8015610c545750600454600354600754010143105b1515610c5f57600080fd5b600082111515610c6e57600080fd5b600a60003373ffffffffffffffffffffffffffffffffffffffff1673ffffffffffffffffffffffffffffffffffffffff168152602001908152602001600020548282604051602001808381526020018281526020019250505060405160208183030381529060405280519060200120141515610ce957600080fd5b81600c60003373ffffffffffffffffffffffffffffffffffffffff1673ffffffffffffffffffffffffffffffffffffffff16815260200190815260200160002081905550600954821115610d80578160098190555033600860006101000a81548173ffffffffffffffffffffffffffffffffffffffff021916908373ffffffffffffffffffffffffffffffffffffffff1602179055505b5050565b6000809054906101000a900473ffffffffffffffffffffffffffffffffffffffff1681565b600b6020528060005260406000206000915090505481565b600860149054906101000a900460ff1681565b60025481565b60055481565b60035481565b600c6020528060005260406000206000915090505481565b600860009054906101000a900473ffffffffffffffffffffffffffffffffffffffff1681565b6004548156fea165627a7a72305820c8641429a4d31e447bad4bd0265e1188248bbea9503e087b33fdc29533033ebc0029",
  "source": "pragma solidity >=0.4.21 <0.6.0;\r\n\r\ncontract sealedAuction {\r\n\t\r\n\t//static auction info\r\n\taddress public owner;\r\n\tuint256 public escrowAmount;\r\n\tuint256 public ipfsHash;\r\n\r\n\t//timeline\r\n\tuint256 public biddingDuration;\r\n\tuint256 public revealingDuration;\r\n\tuint256 public claimingDuration;\r\n\r\n\tbool public started;\r\n\tuint256 public startBlock; \r\n\r\n\taddress public winner;\r\n\tbool public winnerSettled;\r\n\tuint256 public maxRevealedBid;\r\n\r\n\tmapping(address => bytes32) public sealedBids;\r\n    mapping(address => uint256) public escrowedFunds;\r\n    mapping(address => uint256) public revealedBids;\r\n\r\n    //function() payable { } //fallback function\r\n\tconstructor(uint256 _ipfsHash, uint256 _escrowAmount, uint256 _biddingDuration, uint256 _revealingDuration,\r\n\t\t\t\t\t\t   uint256 _claimingDuration) public\r\n\t{\r\n\t\trequire(_escrowAmount > 0);\r\n\t\trequire(_biddingDuration > 0);\r\n\t\trequire(_revealingDuration > 0);\r\n\t\trequire(_claimingDuration > 0);\r\n\r\n        owner = msg.sender;\r\n\r\n        ipfsHash = _ipfsHash;\r\n        escrowAmount = _escrowAmount;\r\n        biddingDuration = _biddingDuration;\r\n        revealingDuration = _revealingDuration;\r\n        claimingDuration = _claimingDuration;\r\n\r\n        started = false;\r\n        maxRevealedBid = 0;\r\n        winnerSettled = false;\r\n    }\r\n\r\n    function startAuction() public\r\n    \tisOwner\r\n    \tnotStarted\r\n    {\r\n    \tstartBlock = block.number;\r\n    \tstarted = true;\r\n    \t//emit auctionStarted(startBlock, biddingDuration);\r\n    }\r\n\r\n    //event auctionStarted(uint256 startBlock, uint256 biddingDuration);\r\n\r\n    function placeBid(bytes32 bid) public \r\n    \tpayable\r\n    \tisNotOwner\r\n    \tinBiddingPeriod\r\n    \tsufficientEscrow\r\n    {\r\n    \tsealedBids[msg.sender] = bid;\r\n    \tescrowedFunds[msg.sender] = msg.value;\r\n    }\r\n\r\n    function revealBid(uint256 bid, uint256 salt) public\r\n    \tinRevealingPeriod\r\n    {\t\r\n    \trequire(bid > 0);\r\n    \trequire(keccak256(abi.encodePacked(bid,salt)) == sealedBids[msg.sender]);\r\n    \trevealedBids[msg.sender] = bid;\r\n    \tif(bid > maxRevealedBid){\r\n    \t\tmaxRevealedBid = bid;\r\n    \t\twinner = msg.sender;\r\n    \t}\r\n    }\r\n\r\n\r\n    function settle() public\r\n    \tpayable\r\n    \tinClaimingPeriod\r\n    \tisWinner\r\n    \twinnerNotSettled\r\n    {\r\n    \tif(escrowedFunds[msg.sender] > maxRevealedBid){\r\n    \t\trequire(msg.sender.send(escrowedFunds[msg.sender] - maxRevealedBid));\r\n    \t}\r\n    \tif(escrowedFunds[msg.sender] < maxRevealedBid){\r\n    \t\trequire(msg.value >= maxRevealedBid - escrowedFunds[msg.sender]);\r\n    \t}\r\n    \twinnerSettled = true;\r\n    }\r\n\r\n    function refund() public\r\n    \tinClaimingPeriod\r\n    \tisNotWinner\r\n    \thasValidBid\r\n    \thasEscrowedFunds\r\n    {\r\n    \trequire(msg.sender.send(escrowedFunds[msg.sender]));\r\n    \tescrowedFunds[msg.sender] = 0;\r\n    }\r\n\r\n    function closeAuction() public \r\n        payable\r\n    \tisOwner\r\n    \tafterclaimingPeriod\r\n    {\r\n        //selfdestruct(owner);\r\n    }\r\n\r\n \tmodifier isOwner {\r\n    \trequire(msg.sender == owner);\r\n    \t_;\r\n    }\r\n\r\n    modifier isNotOwner {\r\n    \trequire(msg.sender != owner);\r\n    \t_;\r\n    }\r\n\r\n    modifier notStarted {\r\n    \trequire(!started);\r\n    \t_;\r\n    }\r\n\r\n    modifier inBiddingPeriod {\r\n    \trequire(started && block.number > startBlock && block.number < startBlock + biddingDuration);\r\n        _;\r\n    }\r\n\r\n    modifier inRevealingPeriod {\r\n    \trequire(started && block.number > startBlock + biddingDuration && block.number < startBlock +\r\n    \t\t\tbiddingDuration + revealingDuration);\r\n    \t\t\t_;\r\n    }\r\n\r\n    modifier inClaimingPeriod {\r\n    \trequire(started && block.number > startBlock + biddingDuration + revealingDuration && block.number < startBlock +\r\n    \t\t\tbiddingDuration + revealingDuration + claimingDuration);\r\n        _;\r\n    }\r\n\r\n    modifier afterclaimingPeriod {\r\n    \trequire(started && block.number > startBlock +\r\n    \t\t\tbiddingDuration + revealingDuration + claimingDuration);\r\n        _;\r\n    }\r\n\r\n    modifier sufficientEscrow {\r\n    \trequire(msg.value >= escrowAmount);\r\n    \t_;\r\n    }\r\n\r\n    modifier isWinner {\r\n    \trequire(msg.sender == winner);\r\n    \t_;\r\n    }\r\n\r\n    modifier isNotWinner {\r\n    \trequire(msg.sender != winner);\r\n    \t_;\r\n    }\r\n\r\n    modifier hasValidBid {\r\n    \trequire(revealedBids[msg.sender] != 0);\r\n    \t_;\r\n    }\r\n\r\n    modifier hasEscrowedFunds {\r\n    \trequire(escrowedFunds[msg.sender] > 0);\r\n    \t_;\r\n    }\r\n\r\n    modifier winnerNotSettled {\r\n    \trequire(!winnerSettled);\r\n    \t_;\r\n    }\r\n    \r\n}\r\n/*\r\nclean(id)\r\n\t\t}\r\n\t}\r\n\tfunction clean(uint id) private{\r\n\t\tauction a = Auctions[id];\r\n\t\ta.highestBid = 0;\r\n\t\ta.highestBidder =0;\r\n\t\ta.deadline = 0;\r\n\t\ta.recipient = 0;\r\n\t\ta.bidHash = 0;\r\n\t}\r\n}\r\n\r\nfunction cancelAuction()\r\n    onlyOwner\r\n    onlyBeforeEnd\r\n    onlyNotCanceled\r\n    returns (bool success)\r\n{\r\n    canceled = true;\r\n    LogCanceled();\r\n    return true;\r\n}\r\n\r\n*/",
  "sourcePath": "C:/Users/Ameer Saleh/Desktop/contractProject/sealedAuction/contracts/sealedAuction.sol",
  "compiler": {
    "name": "solc",
    "version": "0.5.0+commit.1d4f565a.Emscripten.clang"
  },
  "schemaVersion": "3.0.0",
  "updatedAt": "2019-01-04T15:51:20.174Z",
  "devdoc": {
    "methods": {}
  },
  "userdoc": {
    "methods": {}
  }
}